:020000040000FA
:020000000528D1
:06000A0085018801890157
:10001000831603130030880000309F00831269307C
:100020009F001F153F201E08B10071309F001F1553
:100030003F201E08B50079309F001F153F201E0885
:10004000B60031083502031C26282E283108B700D7
:100050003602031C36283608B7003C283508B7009E
:100060003602031C39283608B7003C2801308800C6
:100070000F28033088000F28073088000F284320FE
:100080001F193F2808000130A1000230A2000330F0
:10009000A300A30B4928A20B4728A10B4528080061
:00000001FF
